:060000000A128A11142807
:10000800FE00030883160313DB000408DC000A085B
:10001800DD0083127F088316DE000A128A11ED289C
:100028000A168A11762FFF1B212883137F1883173E
:100038000008840A0319FF0A080000308A0004082F
:10004800840A820700343F3406345B344F34663404
:100058006D347D340734EF346F34003480343F34EA
:10006800723431343F34FE3475343E34583463349A
:100078003D3495341D343C34C534AE343A34793487
:10008800213439349434803437349334A7343534B4
:100098005634153434340034003400340034803499
:1000A8003F34F034FF34BE34E234A9343E34833470
:1000B8007634BE34AE342B343E343C34C334BD3491
:1000C800D23413343D347834D334BB3441345434CB
:1000D8002B34433457344A34413450343D34223479
:1000E800643465346534743422342C342234313425
:1000F80037343234323431343034303438343634BE
:1001080022340D340A340034413454342B3443340B
:1001180049345034533445345234563445345234C7
:100128003D3431342C3431343534393432340D34AF
:100138000A340034413454342B3443344934503471
:10014800533454344F343D343334303430340D3434
:100158000A340034413454342B34433457344D3446
:100168004F34443445343D3431340D340A3400348A
:10017800413454342B344334493450344D34553499
:1001880058343D3431340D340A3400344134543455
:100198002B34433449344634533452340D340A34FE
:1001A8000034413454342B345234533454340D34E1
:1001B8000A34003441345434453430340D340A346C
:1001C8000034413454340D340A3400344F344B3441
:1001D80000348C1E5B2983128C1E5B298C121A0832
:1001E800EE006F08103E84006E0883178000EF0A47
:1001F80033306F020318EF018316690803195B296E
:1002080083126E082B3A83160319EA0183126E08CB
:100218002C3A031913296E083A3A031D4A29831602
:10022800EA0A6A0879210A128A115B296608D63E09
:10023800840083126E0880008316E60A5B2968082A
:10024800DF3E840083126E08831380008316E80A59
:100258005B296508903E840083126E08800083162F
:10026800E50A5B2967089A3E840083126E088000BD
:100278008316E70A83126F0883166C06031D5B2931
:10028800EA0A6A0879210A128A115B2983166A0820
:10029800013A03195B29033A03191A29013A031988
:1002A8002329073A03192D29013A031936290B1D69
:1002B8006B290B1128308312810034308316EB0A26
:1002C8006B02031C6B29EB01E30A0319E40A83168A
:1002D8005E088312FF0083165D088A005C088400AC
:1002E8005B088300FE0E7E0E0900D600033A031950
:1002F8008F29073A03190800013A03190800033A3D
:10030800031D08005F08413A03199929033A0319A4
:100318001A2A013A1D2A8312EF01D6300A128A11CD
:10032800882776088316EC000800D7015708903E06
:10033800840000082E3A031DB829D80191305807C7
:10034800C70057084707C800840083170008C9007A
:100358005808CA3E8400490883138000D80A0A3026
:1003680058020318BD29A229D70A0A305702031CCC
:100378009A29D90159089A3E8400831700082E3A11
:10038800031DDD29DA019B305A07C70059084707C2
:10039800C800840083170008C9005A08D03E8400AA
:1003A800490883138000DA0A0A305A020318E2293E
:1003B800C729D90A0A305902031CBE29CA301E228D
:1003C8000A128A11230883160317A700831203133E
:1003D800220883160317A600831203132108831625
:1003E8000317A50083120313200883160317A4001C
:1003F800D0301E220A128A11230883160317AB0075
:1004080083120313220883160317AA008312031307
:10041800210883160317A9008312031320088316E3
:100428000317A800F1230A128A111D2AD2220A12E0
:100438008A118F2C83120313AD002D0884008313B7
:100448000008AE00AD0A203A0319212A2E08093AFD
:100458000319212AA901AA01AB01AC01A8012E08A0
:100468002D3A031D392AA80A6F2A2E082B3A031998
:100478006F2A2E0891220A128A11031C752A2E0847
:10048800D03EA400A501A601A7012C08F3002B0863
:10049800F2002A08F1002908F0000A30F400F501FA
:1004A800F601F7019F220A128A117008A407710841
:1004B8000318710FA50772080318720FA6077308AF
:1004C8000318730AA7072708AC002608AB002508FD
:1004D800AA002408A9002D0884000008AE00AD0A6F
:1004E8003D2A28080319882A2909A0002A09A100F9
:1004F8002B09A2002C09A300A00A0319A10A0319B9
:10050800A20A0319A30A08002C08A3002B08A200BA
:100518002A08A1002908A0000800F100F0013A30DB
:10052800710203189D2A30307102031C9D2AF001C4
:10053800F00A700C0800F801F901FA01FB01701CBF
:10054800B92A7408F807750803110318013E031D3A
:10055800F907760803110318013E031DFA07770807
:1005680003110318013E031DFB070310F40DF50DDD
:10057800F60DF70D0310F30CF20CF10CF00C7308E8
:10058800720471047004031DA32A7B08F3007A081F
:10059800F2007908F1007808F00008008312A5013C
:1005A8002508903E840083170008FD002508203E9A
:1005B80084007D0883138000A50A04302502031CEB
:1005C800D42A831603171A0883120313A400092BCD
:1005D8002030F000AC3014230A128A11AC306C239E
:1005E8000A128A112030F000BA3014230A128A1134
:1005F800BA306C230A128A112030F000C830142354
:100608000A128A11C8306C2308002408313A0319E9
:10061800EC2A033A0319F62A013A031D0800002BB5
:10062800F700F60176087007F100840083130008CC
:10063800F2007708840083170008F3000310F30D15
:100648000310730D7707F40076087407F500023E6F
:10065800840072088000F60A04307602031C162B08
:1006680083166D0803193D2B77088400800AED0175
:1006780008007708013E84000008F100770884002C
:1006880000087106031D5E2B770884000008023AF3
:10069800031D562B7708840080017708013E8400EB
:1006A8008001080077088400800A7708013E8400EA
:1006B800800A0800770884000008023A031D682BA6
:1006C800770884008001080077088400800A080001
:1006D800F800013E84000008FA00FC017A087C0753
:1006E800F500F601F60D033A7604031D7D2BFA0199
:1006F8007F2B7C08FA07F3017C08D8230A128A1199
:100708004030F3007C08D8230A128A11C030F30065
:100718007C08D8230A128A11FB017A08F500031015
:10072800F50D0310750D7807F6007B087607F700BE
:10073800023E84000008D03EF9000B307902031C09
:10074800A72B0930F9007908013E84000A128A11A2
:1007580021200A128A11C7230A128A110030C723DE
:100768000A128A11FB0A04307B02031C912B8F307A
:10077800C7230A128A11F0308800FC0A03307C0271
:1007880003180800722BF000F101701CCD2B87159F
:10079800CE2B871107110310F00C0715F10A08304A
:1007A800710203180800C92BF400F0308312880086
:1007B800740888000130E5230A128A117308C723D8
:1007C8000800F000F100F108031908000230F200F7
:1007D800F20BEC2BF10BEA2B08000A128A150A20FF
:1007E8000A128A11C600C6036008313A0319032C9D
:1007F800033A0319252C013A031D0800502CFF3039
:10080800BC000730BD00BA01F830BB00460A0F2C07
:100818000310BA0DBB0DFF3E031D0C2C3A08BC0497
:100828003B08BD04F830E2043C08E1053D08E20558
:100838006208F1006108F0001030F20078240A1212
:100848008A113F308316BE00F830BF00C201C300D2
:10085800460A312C0310C20DC30DFF3E031D2E2C7A
:1008680005300310C30CC20CFF3E031D352C420893
:10087800BE044308BF04C030E1040730E2043E0868
:10088800E1053F08E2056208F1006108F000103058
:10089800F20078240A128A11C1308316C000FF3092
:1008A800C100C401F830C500460A5D2C0310C40D10
:1008B800C50DFF3E031D5A2C0A300310C50CC40C8D
:1008C800FF3E031D612C4408C0044508C1043E30A6
:1008D800E1044008E1054108E2056208F100610809
:1008E800F0001030F200782CF3017208730203183C
:1008F8008B2C701C822C83128914842C83128910EF
:1009080009140310F10CF00C0910F30A792C831266
:10091800091509110800F001F0017008903E8400E3
:1009280083178001F00A0B307002031C912CF00130
:1009380070089A3E84008001F00A0B307002031C94
:100948009C2CF0017008D63E84008001F00A033028
:100958007002031CA62CF0017008DF3E840083138C
:100968008001F00A03307002031CB02C8316E501E5
:10097800E701E601E8010800EB00EC0169086C02F8
:100988000318E02C6A08031DCC2CEC08031DD02C9E
:100998006B080A250A128A110130E2240A128A1108
:1009A8008316031768082D250A128A11031CDE2CEA
:1009B800F8240134EC0AC22CF824003483160317F7
:1009C800DA000313E301E401831603136408803A91
:1009D8000317D90080305902031DF52C5A08031358
:1009E800630203180800E82C83160317D901D901FC
:1009F8005908103E840083178001D90A3330590200
:100A0800031CFC2C83120313EF0108008316031741
:100A1800DA005A0884000A128A1121200A128A115F
:100A28000038031908005A0884000A128A11212084
:100A38000A128A1124250A128A110317DA0A0D2DBF
:100A4800D9005908831203139900831698180800CF
:100A5800292DE700E50010303A250A128A11003ADC
:100A68000319382D0314080003100800E60066086F
:100A780003190034660884008317800803190034BA
:100A88006508DF006508D9008030DA0069250A1298
:100A98008A115A08E1005908E00066089B250A12E5
:100AA8008A1160085F04031D5B2D6608080065084D
:100AB80084000A128A1121200A128A11D900DA0147
:100AC800660AD2250A128A113A2D5A08DE005908F8
:100AD800DD00831603175E08DC005D08DB00DD0A15
:100AE8000319DE0A5C0883120313FF008316031739
:100AF8005B088400831203130A128A1117200A1252
:100B08008A110038031D6D2D8316031759085D02DD
:100B1800DB005A08031C5A0A5E02DC005B08FF3E31
:100B2800D9005C080318013EFF3EDA000800E40023
:100B38000130E0020030031CE103E102600A0319FE
:100B4800610A0319CF2D64088400831780080319EC
:100B5800BB2D5F0884000A128A1121200A128A110B
:100B6800E20064088400000862060319CC2D5F08BF
:100B780084000A128A112120E20064088400000817
:100B8800E30062086302DF00E001031CE0030800E1
:100B9800E40ADF0A9C2DDF01E0010800DB005B08A6
:100BA8008400831700085906031DDC2D5B08080024
:100BB8005B08DB0A8400800803190034D32DAC30AD
:100BC800F9250A128A11BA30F9250A128A11C83091
:100BD800F9250A128A11AC301E260A128A11BA3077
:100BE8001E260A128A11C8301E2E83160317DC002F
:100BF800013E8400831780015C0884008001DD01C8
:100C0800DE015D08D9000310D90D0310590D5C07EA
:100C1800DA005E085A07DB00023E84008001DE0A23
:100C280004305E02031C052EDD0A03305D02031842
:100C38000800042EE100013E84000008E300E501FD
:100C480063086507DE00DF01DF0D033A5F04031D5B
:100C58002F2EE301312E6508E307DC01650898268D
:100C68000A128A114030DC00650898260A128A1197
:100C7800C030DC00650898260A128A11E40163086E
:100C8800DE000310DE0D03105E0D6107DF0064084F
:100C98005F07E000023E84000008D03EE2000B300F
:100CA8006202031C592E0930E2006208013E8400EA
:100CB8000A128A1121200A128A117D260A128A1123
:100CC80000307D260A128A11E40A04306402031CEB
:100CD800432E8F307D260A128A11F03083120313B7
:100CE800880083160317E50A033065020318080015
:100CF800242ED900DA01591C852E83120313871577
:100D0800882E831203138711071183160317031004
:100D1800D90C83120313071583160317DA0A083050
:100D28005A02031808007F2EDD00F03083120313E7
:100D38008800831603175D088312031388000130A7
:100D4800A9260A128A115C087D2E83160317D9007A
:100D5800DA00DA08031908000230DB00DB0BB22ED8
:100D6800DA0BB02E08008316850101308600880151
:100D78008901831285010A128A11E3250A128A1150
:100D88000A168A115D270A128A110A168A114F2734
:100D98000A128A1101300A168A1156270A128A1174
:100DA80003300A128A11E2240A128A110A128A11DD
:100DB800F8240A128A11C43083160317E800073092
:100DC800E900EA01EA0ABF300A128A11C0240A12AD
:100DD8008A110038031DF32E01308500F22EC4302D
:100DE80083160317E800E901E90AEA01EA0AB830BC
:100DF8000A128A11C0240A128A11C43083160317F2
:100E0800E800E901E90AEA0188300A128A11C024D7
:100E18000A128A110038031D142F01308500132F80
:100E2800C43083160317E800E901E90AEA01AF3084
:100E38000A128A11C0240A128A1103300A128A116E
:100E4800E2240A128A11C43083160317E80003301B
:100E5800E900EA0196300A128A11C0240A128A119E
:100E68000038031D3A2F01308500392FC43083160E
:100E78000317E8000A30E900EA0144300A128A112F
:100E8800C0240A128A110038031D4D2F0130850035
:100E98004C2FA4300A128A110A250A128A1101302D
:100EA8000A128A11E2240A128A110A128A11F824F3
:100EB8000A128A11C43083160317E8000330E900C8
:100EC800EA0162300A128A11C0240A128A11003813
:100ED800031D712F01308500702FC430831603174E
:100EE800E8000330E900EA0178300A128A11C024C8
:100EF8000A128A110038031D842F01308500832FC0
:100F08008316E901E90A872FFD007D08840000089F
:100F1800203A031D912FFD0A892F7D0884000008BF
:100F2800093A03198F2FFB01FC01FA017D0884009F
:100F380000082D3A031DA22FFA0ACE2F7D0884003F
:100F480000082B3A0319CE2F7D08840000080A12E6
:100F58008A1191220A128A11031CD02F7D0884005D
:100F68007C08F1007B08F0000A30F200F301E42766
:100F78000A128A1100087007F800003003180130BF
:100F88007107F9007808D03EFB0079080318013E84
:100F9800FF3EFC00FD0AA82F7A080319DF2F7B0902
:100FA800F8007C09F900F80A0319F90A7808F6002C
:100FB8007908F70008007C08F7007B08F6000800AD
:100FC800F401F501701CEE2F7208F4070318F50AF6
:100FD8007308F5070310F20DF30D0310F10CF00C74
:100FE80071087004031DE62F7508F1007408F000FD
:020FF8000800EF
:1010040064008001840A04060319003404060328DA
:101014002B0883120313AC00831603172A088312C8
:101024000313AB0083160317290883120313AA00C2
:1010340083160317280883120313A900F430A907A1
:10104400A3300318A430AA07FE300318FF30AB07FF
:10105400FF30031CAC07A7270A128A152908831638
:10106400AE0083122A088316AF0083122B0883165E
:10107400B0000317270883120313AC008316031769
:10108400260883120313AB00831603172508831263
:101094000313AA0083160317240883120313A90059
:1010A4000C30A907FE300318FF30AA07FF30031CD9
:1010B400AB07031CAC07A7270A128A152908831655
:1010C400B10083122A088316B20083122B088316F8
:1010D400B300A301A4014030A5003108A0003208E8
:1010E400A1003308A200C8200A128A152008B400FF
:1010F4002108B5002208B600A301A4014030A500D0
:101104002E08A0002F08A1003008A200C8200A124F
:101114008A1520088312B200831621088312B300B3
:10112400831622088312B400831634088312AF0096
:10113400831635088312B000831636088312B10073
:10114400E5240A128A152F08DE003008DF00310872
:10115400E000C4230A128A155E08F8005F08F9004B
:101164006008FA008D210A128A1579088316B800DE
:101174007808B700A730F0001A30F1003808F300FF
:101184003708F200D6277008B9000800A901220820
:1011940021042004031DDC28F001F101F2012308DD
:1011A400F3002408F4002508F5005E26A001A1013F
:1011B400A2010800250824042304031DE728A00134
:1011C4008030A1003F30A20008002008F000210870
:1011D400F1002208F200F301F401F5015E260A127F
:1011E4008A15031835292308F8002408F90025086E
:1011F400FA008D210A128A157B088316AD007A083D
:10120400AC007908AB007808AA002D08FB002C0874
:10121400FA002B08F9002A08F800EF210A128A15AF
:1012240025087A06031D1C2924087906031D1C2998
:101234002308780603192229A001A101A2010800AC
:101244002A08A9000130A9052008F0002108F100AE
:101254002208F200A0260A128A157008A00071085C
:10126400A1007208A20020088312D000831621086E
:101274008312D100831622088312D2000D220A128F
:101284008A1550088316A600831251088316A700F6
:10129400831252088316A80023088312A000831621
:1012A40024088312A100831625088312A200831642
:1012B40026088312A300831627088312A40083162A
:1012C40028088312A500A5250A128A152008D5002E
:1012D4002108D6002208D700D2220A128A155508FE
:1012E4008316A000831256088316A10083125708A0
:1012F4008316A2002908031908002008F000210819
:10130400F1002208F200A0267008A0007108A100D4
:101314007208A200080078088312A0007908A100CE
:101324007A08A2000310210D220DA800A808031DAD
:10133400A029F801F901FA01FB0108007808A000CE
:101344007908A1007A08A20017300310A20CA10C9E
:10135400A00CFF3E031DA7292008A300F917FA01DA
:101364007808A4007908A5007A08A600A7018E30A1
:10137400A802A81FCA292808803A8F3E031C9B296B
:101384000310A70CA60CA50CA40CA80FC229D829DD
:101394001830280203189B29A8080319D829031018
:1013A400A40DA50DA60DA70DA803CE292308031986
:1013B400E629A409A509A609A709A40A0319A50AE7
:1013C4000319A60A0319A70A2708FB002608FA002E
:1013D4002508F9002408F80008008E30FC00FF30CE
:1013E4007B050319FC290310FB0CFA0CF90CF80C0F
:1013F400FC0AF1297808F0007908F1007A08F20073
:101404007C08F300F40120267008F8007108F90044
:101414007208FA0008005008F0005108F100520860
:10142400F200F301F401F5015E260A128A1503188D
:101434001F2AD001D101D2010800520851045004DE
:10144400031D282AD001D101D2010800AF01803048
:10145400B000BF30B100A001A1014030A200533060
:10146400F3005008F0005108F1005208F2009622EF
:101474000A128A157008A3007108A4007208A50056
:10148400A5250A128A152008B2002108B3002208F3
:10149400B400E5240A128A152F08D0003008D100C0
:1014A4003108D200FF30D307031CD4035008C50011
:1014B4005108C6005208C7002930C8000830C900C6
:1014C400CA0187240A128A154508D0004608D100AB
:1014D4004708D2005008AF005108B0005208B100CC
:1014E4007230A0003130A1003F30A2005408F9004E
:1014F4005308F800A8260A128A157808A300790868
:10150400A4007A08A500A5250A128A152008B200AD
:101514002108B3002208B400E5242F08D0003008C5
:10152400D1003108D2000800720871047004031D50
:10153400A52A7308840083138001840A8001F001C2
:10154400F101F201080072087F39F400F50103107B
:10155400F40DF50D73088400740883138000840A65
:1015640075088000710D710D0139F400F5017308DF
:10157400840074088004840A750880047308840055
:1015840082308007840F00080318000AFF00FF3E22
:1015940080008403720880393F38F200F113080098
:1015A400570856045504031DDD2AD5018030D600A2
:1015B4003F30D70008007230F0003130F100443081
:1015C400F2005508F3005608F4005708F5005E26AB
:1015D4000A128A150318F42AFF30D5007F30D6008A
:1015E400D70008005508F0005608F1005708F2002B
:1015F4004930F3003A30F400C430F5005E260A1294
:101604008A150318092BD501D601D70108005508FE
:10161400F0005608F1005708F200F301F401F50157
:101624005E260A128A150030031C0130DD005D08B5
:1016340003192B2B5508F0005608F1005708F20047
:10164400A0260A128A157008D5007108D6007208FF
:10165400D700AA30A000B830A1003F30A20055083E
:10166400A3005608A4005708A500A5250A128A1548
:101674002008D5002108D6002208D7005508BB0051
:101684005608BC005708BD0037270A128A153B08C4
:10169400F8003C08F9003D08FA008D210A128A1569
:1016A4007908DC007808DB005C08F9005B08F800C6
:1016B400A8260A128A157808BB007908BC007A08A3
:1016C400BD005508BE005608BF005708C0008A2652
:1016D4000A128A153B08D5003C08D6003D08D700FD
:1016E4005508C5005608C6005708C7000B30C80087
:1016F4000930C900CA0187240A128A154508BB00AB
:101704004608BC004708BD005C08BF005B08BE007B
:10171400C3260A128A153B08D5003C08D6003D08AA
:10172400D7005D0803190800D8018030D9007F3044
:10173400DA00FF30D8007F30D900DA005706031DE5
:10174400A92B56085906031DA92B55085806031D35
:10175400AF2BD501D601D70108005508F80056086B
:10176400F9005708FA00FB018030FC003F30FD000F
:101774000A168A1196277808D5007908D6007A08BF
:10178400D7000800F001F101F2015E08F3005F08E0
:10179400F4006008F5005E260A128A155E08031C30
:1017A400E02BF0005F08F1006008F200F301F4019F
:1017B400F5015E26DE01DF01E0010800E4005F08B8
:1017C400E5006008E600C830EB006E30EC00BE3087
:1017D400ED005E08EB025F08031C5F0FEC0260087B
:1017E400031C600AED020310ED0CEC0CEB0CE101A0
:1017F4008030E200E3016108E4026208031C620F26
:10180400E5026308031C630AE6020430E700640887
:10181400A0006508A1006608A2006B08A3006C087C
:10182400A4006D08A500A5250A128A152008E80061
:101834002108E9002208EA006B08A0006C08A10056
:101844006D08A2006808A3006908A4006A08A5003E
:10185400A5250A128A152008E8002108E9002208B3
:10186400EA006B08A0006C08A1006D08A2006808DB
:10187400A3006908A4006A08A500A5250A128A1510
:101884002008E8002108E9002208EA00A001C0308D
:10189400A1003F30A2006B08A3006C08A4006D08EF
:1018A400A500A5250A128A152008EB002108EC00E2
:1018B4002208ED006808BB006908BC006A08BD0086
:1018C4006B08BE006C08BF006D08C0008A260A12AF
:1018D4008A153B08EB003C08EC003D08ED00E70BE3
:1018E400092C5E08A0005F08A1006008A2006B0834
:1018F400A3006C08A4006D08A500A5252008DE003F
:101904002108DF002208E0000800490849074907C8
:10191400480784000A128A1121200A128A15CD0070
:101924000A128A1121200A128A15CE000A128A117B
:1019340021200A128A15CF004A0849040319DE2C13
:10194400FF30C907031CCA034A08CC004908CB006E
:101954004B074B07480784000A128A1121200A12F8
:101964008A15AF000A128A1121200A128A15B000C2
:101974000A128A1121200A128A15B1004D08A0000A
:101984004E08A1004F08A2004508A3004608A40081
:101994004708A500A5250A128A152008B2002108C7
:1019A400B3002208B400E5240A128A152F08CD00DA
:1019B4003008CE0031089D2C4D08C5004E08C600E5
:1019C4004F08C70008002F08B5003008B6003108DA
:1019D400B7000310360D370DBA003208B5003308CE
:1019E400B6003408B7000310360D370DB9003A08B5
:1019F4000319082D39083A0239080318102DB500C7
:101A04003A08B50219303502031C0F2D3208AF0015
:101A14003308B0003408B10008003908031908007D
:101A24003A08390203181E2D3A08B5003908B502E0
:101A340019303502031808000630B800B11BB81776
:101A4400B41B3817B017B101B317B40139083A02FF
:101A54000318452D0310B20DB30DB40DB9033908A5
:101A64003A060319402DB803380807390319402DE5
:101A74002C2D0310B10CB00CAF0CBA0A3A0839067D
:101A84000319612D3B2D3A0839020318612D031007
:101A9400AF0DB00DB10DBA0339083A0603195D2D27
:101AA400B8033808073903195D2D492D0310B40C08
:101AB400B30CB20CB90A3A083906031D582DB81FE5
:101AC4006C2DFF30AF06B006B106AF0A0319B00A99
:101AD4000319B10A381F772DFF30B206B306B406D6
:101AE400B20A0319B30A0319B40AB8012F08B207DA
:101AF400300803110318300A031DB307310803111A
:101B04000318310A031DB407B41F932DFF30B20626
:101B1400B306B406B20A0319B30A0319B40AB80126
:101B2400B80A3208F0003308F1003408F2003A0829
:101B3400F3003808F40020267008AF007108B000E4
:101B44007208B10008002008A6002108A700220896
:101B5400A8000310270D280DA900A908031DB62D00
:101B6400A001A101A20108002308A6002408A700DF
:101B74002508A8000310270D280DAE00AE08031D8C
:101B8400C72DA001A101A20108002E087B3EA907D0
:101B94002208AE002508AE068030AE05A117A417B2
:101BA400A501AA01AB01AC010730AD00201CE82D52
:101BB4002308AA07240803110318240A031DAB07EA
:101BC400250803110318250A031DAC070310A20CF2
:101BD400A10CA00C0310A30DA40DA50DAD0BD82DC5
:101BE4000930AD00201C042E2308AA072408031181
:101BF4000318240A031DAB07250803110318250A3B
:101C0400031DAC070310A20CA10CA00C0310AC0C18
:101C1400AB0CAA0CAD0BF42D2A08F0002B08F10034
:101C24002C08F2002908F3002E08F400202670087E
:101C3400A0007108A1007208A2000800730803192B
:101C4400282E720871047004031D312EF001F10175
:101C5400F2010800F30A0310F20CF10CF00CFE3050
:101C640072050319402E2C2EF30AF00A0319F10A07
:101C74000319F20A0310F20CF10CF00CFF30720598
:101C840003194A2E362EF3030310F00DF10DF20D55
:101C9400F11F452E731CF1130310F30C7308F700A6
:101CA400F601F5017508F0047608F1047708F204EA
:101CB4007408031DF2170800F21F6D2E7008003C13
:101CC400F0007108031C710F003CF1007208031C42
:101CD400720F803CF200F51F7C2E7308003CF30069
:101CE4007408031C740F003CF4007508031C750F82
:101CF400803CF5008030F206F50675087202031D7B
:101D0400080074087102031D0800730870020800BB
:101D14008030BD063E08AF003F08B0004008B10067
:101D24003B08B2003C08B3003D08B400E5242F088A
:101D3400BB003008BC003108BD0008007208710403
:101D44007004031908008030F2060800FB01F91F33
:101D5400B22EF809F909F80A0319F90AFB01FB0A7A
:101D64007808F0007908F100F2018E30F3007B0866
:101D7400F40020267008F8007108F9007208FA00CF
:101D840008003D083C043B04031DCC2EBB01BC01F0
:101D9400BD0108003D087F39C000C1010310C00D1A
:101DA400C10D4008BE070318BF0A4108BF073C0D18
:101DB4003C0D0139BE070318BF0ABF1FE52EBB0146
:101DC400BC01BD0108003F08803AFF0081307F025A
:101DD400031DEE2E00303E02031C1E2F831203133C
:101DE4003B08F0003C08F1003D08F200F301F40167
:101DF400F5015E260A128A150318182FC2018030D5
:101E0400C3007F30C400FF30C2007F30C300C40071
:101E14004208F0004308F1004408F200A0267008CC
:101E2400BB007108BC007208BD000800FF30BB0095
:101E34007F30BC00BD000800831203133F08C100BB
:101E44003E08C000410DC10CC00C3D08400680395D
:101E54004006BD003E080139C000C00CC00C3C085F
:101E640040067F394006BC0008003B08F0003C08EF
:101E7400F1003D08F2004130F30096220A128A155F
:101E8400C21F5B2F3B08F0003C08F1003D08F20044
:101E9400F301F401F5015E260A128A15BB01031849
:101EA400582F8030BC00BF30BD000800BC01BD010C
:101EB40008000030420215300319410203180800DB
:101EC4003B08F8003C08F9003D08FA008D210A128D
:101ED4008A157B08AC007A08AB007908AA00780858
:101EE400A900A7270A128A152908BE002A08BF00DC
:101EF4002B08C0003B08F0003C08F1003D08F2004C
:101F04003E08F3003F08F4004008F5005E260A127C
:101F14008A150318A02FAF018030B000BF30B10084
:101F24003E08B2003F08B3004008B400E5242F087F
:101F3400BB003008BC003108BD0008003E08BB00EF
:101F44003F08BC004008BD000800FD018E30FC00C5
:101F5400AC1FB92FA909AA09AB09AC09A90A03192D
:101F6400AA0A0319AB0A0319AC0AFD01FD0AFF30E2
:101F74002C050319C42F0310AC0CAB0CAA0CA90C30
:101F8400FC0AB92F2908F0002A08F1002B08F200F6
:101F94007C08F3007D08F40020267008A90071086D
:101FA400AA007208AB000800F401F501710870047E
:101FB4000319FB2FF601F60AF11BE42F0310F00DB1
:101FC400F10DDD2F0310F40DF50D71087302031DDF
:101FD400ED2F70087202031CF72F7008F2027108CB
:101FE400031CF303F30274140310F10CF00CF60B4E
:0C1FF400E42F7508F1007408F0000800EC
:102E9E00073081002830831281008B1608008316BC
:102EAE000317D9005908031D8B1708000313981335
:102EBE0018139816181218159814181083129817BC
:102ECE00181398161816981118119810181080309B
:102EDE0083168700053099008C160B170800EF013A
:102EEE008313DF308400ED300A128A1502200A1691
:102EFE008A11831790308400D9300A128A15022065
:102F0E000A168A111030840042300A128A150220E5
:102F1E0083160130ED0083010A128A11B72E7B0849
:102F2E00A0007C08A1007D08A2000310210D220D37
:102F3E00A700A708031DA72FF801F901FA01080041
:102F4E007808A0007908A1007A08A2000310210DCC
:102F5E00220DA800A808031DB82FF801F901FA01E7
:102F6E000800A401A501A60189302807A000A70228
:102F7E007D08A8007A08A8068030A805FC17FD0178
:102F8E00F917FA011830A3000310A40DA50DA60D14
:102F9E007A087D02031DD92F79087C02031DD92FD3
:102FAE0078087B02031CE72F7808FB027908031CC4
:102FBE00790FFC027A08031C7A0AFD02241403100E
:102FCE00FB0DFC0DFD0DA30BCB2F2408F0002508E7
:102FDE00F1002608F2002708F3002808F4000A1270
:102FEE008A1520267008F8007108F9007208FA0098
:022FFE000800C9
:02400E00323B43
:00000001FF
